{
  "_format": "hh-sol-artifact-1",
  "contractName": "BadgeToken",
  "sourceName": "contracts/BadgeToken.sol",
  "abi": [
    {
      "inputs": [
        {
          "internalType": "string",
          "name": "_name",
          "type": "string"
        },
        {
          "internalType": "string",
          "name": "_symbol",
          "type": "string"
        }
      ],
      "stateMutability": "nonpayable",
      "type": "constructor"
    },
    {
      "anonymous": false,
      "inputs": [
        {
          "indexed": true,
          "internalType": "address",
          "name": "owner",
          "type": "address"
        },
        {
          "indexed": true,
          "internalType": "address",
          "name": "approved",
          "type": "address"
        },
        {
          "indexed": true,
          "internalType": "uint256",
          "name": "tokenId",
          "type": "uint256"
        }
      ],
      "name": "Approval",
      "type": "event"
    },
    {
      "anonymous": false,
      "inputs": [
        {
          "indexed": true,
          "internalType": "address",
          "name": "owner",
          "type": "address"
        },
        {
          "indexed": true,
          "internalType": "address",
          "name": "operator",
          "type": "address"
        },
        {
          "indexed": false,
          "internalType": "bool",
          "name": "approved",
          "type": "bool"
        }
      ],
      "name": "ApprovalForAll",
      "type": "event"
    },
    {
      "anonymous": false,
      "inputs": [
        {
          "indexed": true,
          "internalType": "address",
          "name": "from",
          "type": "address"
        },
        {
          "indexed": true,
          "internalType": "address",
          "name": "to",
          "type": "address"
        },
        {
          "indexed": true,
          "internalType": "uint256",
          "name": "tokenId",
          "type": "uint256"
        }
      ],
      "name": "Transfer",
      "type": "event"
    },
    {
      "inputs": [
        {
          "internalType": "address",
          "name": "to",
          "type": "address"
        },
        {
          "internalType": "uint256",
          "name": "tokenId",
          "type": "uint256"
        }
      ],
      "name": "approve",
      "outputs": [],
      "stateMutability": "nonpayable",
      "type": "function"
    },
    {
      "inputs": [
        {
          "internalType": "address",
          "name": "owner",
          "type": "address"
        }
      ],
      "name": "balanceOf",
      "outputs": [
        {
          "internalType": "uint256",
          "name": "",
          "type": "uint256"
        }
      ],
      "stateMutability": "view",
      "type": "function"
    },
    {
      "inputs": [
        {
          "internalType": "uint256",
          "name": "tokenId",
          "type": "uint256"
        }
      ],
      "name": "getApproved",
      "outputs": [
        {
          "internalType": "address",
          "name": "",
          "type": "address"
        }
      ],
      "stateMutability": "view",
      "type": "function"
    },
    {
      "inputs": [
        {
          "internalType": "address",
          "name": "owner",
          "type": "address"
        },
        {
          "internalType": "address",
          "name": "operator",
          "type": "address"
        }
      ],
      "name": "isApprovedForAll",
      "outputs": [
        {
          "internalType": "bool",
          "name": "",
          "type": "bool"
        }
      ],
      "stateMutability": "view",
      "type": "function"
    },
    {
      "inputs": [
        {
          "internalType": "address",
          "name": "_to",
          "type": "address"
        }
      ],
      "name": "mintTo",
      "outputs": [],
      "stateMutability": "nonpayable",
      "type": "function"
    },
    {
      "inputs": [],
      "name": "name",
      "outputs": [
        {
          "internalType": "string",
          "name": "",
          "type": "string"
        }
      ],
      "stateMutability": "view",
      "type": "function"
    },
    {
      "inputs": [
        {
          "internalType": "uint256",
          "name": "tokenId",
          "type": "uint256"
        }
      ],
      "name": "ownerOf",
      "outputs": [
        {
          "internalType": "address",
          "name": "",
          "type": "address"
        }
      ],
      "stateMutability": "view",
      "type": "function"
    },
    {
      "inputs": [
        {
          "internalType": "address",
          "name": "from",
          "type": "address"
        },
        {
          "internalType": "address",
          "name": "to",
          "type": "address"
        },
        {
          "internalType": "uint256",
          "name": "tokenId",
          "type": "uint256"
        }
      ],
      "name": "safeTransferFrom",
      "outputs": [],
      "stateMutability": "nonpayable",
      "type": "function"
    },
    {
      "inputs": [
        {
          "internalType": "address",
          "name": "from",
          "type": "address"
        },
        {
          "internalType": "address",
          "name": "to",
          "type": "address"
        },
        {
          "internalType": "uint256",
          "name": "tokenId",
          "type": "uint256"
        },
        {
          "internalType": "bytes",
          "name": "data",
          "type": "bytes"
        }
      ],
      "name": "safeTransferFrom",
      "outputs": [],
      "stateMutability": "nonpayable",
      "type": "function"
    },
    {
      "inputs": [
        {
          "internalType": "address",
          "name": "operator",
          "type": "address"
        },
        {
          "internalType": "bool",
          "name": "approved",
          "type": "bool"
        }
      ],
      "name": "setApprovalForAll",
      "outputs": [],
      "stateMutability": "nonpayable",
      "type": "function"
    },
    {
      "inputs": [
        {
          "internalType": "bytes4",
          "name": "interfaceId",
          "type": "bytes4"
        }
      ],
      "name": "supportsInterface",
      "outputs": [
        {
          "internalType": "bool",
          "name": "",
          "type": "bool"
        }
      ],
      "stateMutability": "view",
      "type": "function"
    },
    {
      "inputs": [],
      "name": "symbol",
      "outputs": [
        {
          "internalType": "string",
          "name": "",
          "type": "string"
        }
      ],
      "stateMutability": "view",
      "type": "function"
    },
    {
      "inputs": [
        {
          "internalType": "uint256",
          "name": "tokenId",
          "type": "uint256"
        }
      ],
      "name": "tokenURI",
      "outputs": [
        {
          "internalType": "string",
          "name": "",
          "type": "string"
        }
      ],
      "stateMutability": "pure",
      "type": "function"
    },
    {
      "inputs": [
        {
          "internalType": "address",
          "name": "from",
          "type": "address"
        },
        {
          "internalType": "address",
          "name": "to",
          "type": "address"
        },
        {
          "internalType": "uint256",
          "name": "tokenId",
          "type": "uint256"
        }
      ],
      "name": "transferFrom",
      "outputs": [],
      "stateMutability": "nonpayable",
      "type": "function"
    }
  ],
  "bytecode": "0x608060405260006006553480156200001657600080fd5b50604051620033223803806200332283398181016040528101906200003c9190620001ff565b818181600090816200004f9190620004cf565b508060019081620000619190620004cf565b5050505050620005b6565b6000604051905090565b600080fd5b600080fd5b600080fd5b600080fd5b6000601f19601f8301169050919050565b7f4e487b7100000000000000000000000000000000000000000000000000000000600052604160045260246000fd5b620000d5826200008a565b810181811067ffffffffffffffff82111715620000f757620000f66200009b565b5b80604052505050565b60006200010c6200006c565b90506200011a8282620000ca565b919050565b600067ffffffffffffffff8211156200013d576200013c6200009b565b5b62000148826200008a565b9050602081019050919050565b60005b838110156200017557808201518184015260208101905062000158565b60008484015250505050565b60006200019862000192846200011f565b62000100565b905082815260208101848484011115620001b757620001b662000085565b5b620001c484828562000155565b509392505050565b600082601f830112620001e457620001e362000080565b5b8151620001f684826020860162000181565b91505092915050565b6000806040838503121562000219576200021862000076565b5b600083015167ffffffffffffffff8111156200023a57620002396200007b565b5b6200024885828601620001cc565b925050602083015167ffffffffffffffff8111156200026c576200026b6200007b565b5b6200027a85828601620001cc565b9150509250929050565b600081519050919050565b7f4e487b7100000000000000000000000000000000000000000000000000000000600052602260045260246000fd5b60006002820490506001821680620002d757607f821691505b602082108103620002ed57620002ec6200028f565b5b50919050565b60008190508160005260206000209050919050565b60006020601f8301049050919050565b600082821b905092915050565b600060088302620003577fffffffffffffffffffffffffffffffffffffffffffffffffffffffffffffffff8262000318565b62000363868362000318565b95508019841693508086168417925050509392505050565b6000819050919050565b6000819050919050565b6000620003b0620003aa620003a4846200037b565b62000385565b6200037b565b9050919050565b6000819050919050565b620003cc836200038f565b620003e4620003db82620003b7565b84845462000325565b825550505050565b600090565b620003fb620003ec565b62000408818484620003c1565b505050565b5b81811015620004305762000424600082620003f1565b6001810190506200040e565b5050565b601f8211156200047f576200044981620002f3565b620004548462000308565b8101602085101562000464578190505b6200047c620004738562000308565b8301826200040d565b50505b505050565b600082821c905092915050565b6000620004a46000198460080262000484565b1980831691505092915050565b6000620004bf838362000491565b9150826002028217905092915050565b620004da8262000284565b67ffffffffffffffff811115620004f657620004f56200009b565b5b620005028254620002be565b6200050f82828562000434565b600060209050601f83116001811462000547576000841562000532578287015190505b6200053e8582620004b1565b865550620005ae565b601f1984166200055786620002f3565b60005b8281101562000581578489015182556001820191506020850194506020810190506200055a565b86831015620005a157848901516200059d601f89168262000491565b8355505b6001600288020188555050505b505050505050565b612d5c80620005c66000396000f3fe608060405234801561001057600080fd5b50600436106100ea5760003560e01c806370a082311161008c578063a22cb46511610066578063a22cb4651461025b578063b88d4fde14610277578063c87b56dd14610293578063e985e9c5146102c3576100ea565b806370a08231146101f1578063755edd171461022157806395d89b411461023d576100ea565b8063095ea7b3116100c8578063095ea7b31461016d57806323b872dd1461018957806342842e0e146101a55780636352211e146101c1576100ea565b806301ffc9a7146100ef57806306fdde031461011f578063081812fc1461013d575b600080fd5b61010960048036038101906101049190611b50565b6102f3565b6040516101169190611b98565b60405180910390f35b6101276103d5565b6040516101349190611c43565b60405180910390f35b61015760048036038101906101529190611c9b565b610467565b6040516101649190611d09565b60405180910390f35b61018760048036038101906101829190611d50565b6104ad565b005b6101a3600480360381019061019e9190611d90565b6105c4565b005b6101bf60048036038101906101ba9190611d90565b610624565b005b6101db60048036038101906101d69190611c9b565b610644565b6040516101e89190611d09565b60405180910390f35b61020b60048036038101906102069190611de3565b6106ca565b6040516102189190611e1f565b60405180910390f35b61023b60048036038101906102369190611de3565b610781565b005b6102456107a3565b6040516102529190611c43565b60405180910390f35b61027560048036038101906102709190611e66565b610835565b005b610291600480360381019061028c9190611fdb565b61084b565b005b6102ad60048036038101906102a89190611c9b565b6108ad565b6040516102ba9190611c43565b60405180910390f35b6102dd60048036038101906102d8919061205e565b610a38565b6040516102ea9190611b98565b60405180910390f35b60007f80ac58cd000000000000000000000000000000000000000000000000000000007bffffffffffffffffffffffffffffffffffffffffffffffffffffffff1916827bffffffffffffffffffffffffffffffffffffffffffffffffffffffff191614806103be57507f5b5e139f000000000000000000000000000000000000000000000000000000007bffffffffffffffffffffffffffffffffffffffffffffffffffffffff1916827bffffffffffffffffffffffffffffffffffffffffffffffffffffffff1916145b806103ce57506103cd82610acc565b5b9050919050565b6060600080546103e4906120cd565b80601f0160208091040260200160405190810160405280929190818152602001828054610410906120cd565b801561045d5780601f106104325761010080835404028352916020019161045d565b820191906000526020600020905b81548152906001019060200180831161044057829003601f168201915b5050505050905090565b600061047282610b36565b6004600083815260200190815260200160002060009054906101000a900473ffffffffffffffffffffffffffffffffffffffff169050919050565b60006104b882610644565b90508073ffffffffffffffffffffffffffffffffffffffff168373ffffffffffffffffffffffffffffffffffffffff1603610528576040517f08c379a000000000000000000000000000000000000000000000000000000000815260040161051f90612170565b60405180910390fd5b8073ffffffffffffffffffffffffffffffffffffffff16610547610b81565b73ffffffffffffffffffffffffffffffffffffffff161480610576575061057581610570610b81565b610a38565b5b6105b5576040517f08c379a00000000000000000000000000000000000000000000000000000000081526004016105ac90612202565b60405180910390fd5b6105bf8383610b89565b505050565b6105d56105cf610b81565b82610c42565b610614576040517f08c379a000000000000000000000000000000000000000000000000000000000815260040161060b90612294565b60405180910390fd5b61061f838383610cd7565b505050565b61063f8383836040518060200160405280600081525061084b565b505050565b60008061065083610fd0565b9050600073ffffffffffffffffffffffffffffffffffffffff168173ffffffffffffffffffffffffffffffffffffffff16036106c1576040517f08c379a00000000000000000000000000000000000000000000000000000000081526004016106b890612300565b60405180910390fd5b80915050919050565b60008073ffffffffffffffffffffffffffffffffffffffff168273ffffffffffffffffffffffffffffffffffffffff160361073a576040517f08c379a000000000000000000000000000000000000000000000000000000000815260040161073190612392565b60405180910390fd5b600360008373ffffffffffffffffffffffffffffffffffffffff1673ffffffffffffffffffffffffffffffffffffffff168152602001908152602001600020549050919050565b600061078b61100d565b90506107978282611023565b61079f611240565b5050565b6060600180546107b2906120cd565b80601f01602080910402602001604051908101604052809291908181526020018280546107de906120cd565b801561082b5780601f106108005761010080835404028352916020019161082b565b820191906000526020600020905b81548152906001019060200180831161080e57829003601f168201915b5050505050905090565b610847610840610b81565b838361125a565b5050565b61085c610856610b81565b83610c42565b61089b576040517f08c379a000000000000000000000000000000000000000000000000000000000815260040161089290612294565b60405180910390fd5b6108a7848484846113c6565b50505050565b60606108b7611abd565b6040518061012001604052806101008152602001612c276101009139816000600381106108e7576108e66123b2565b5b60200201819052506108f883611422565b8160016003811061090c5761090b6123b2565b5b60200201819052506040518060400160405280600d81526020017f3c2f746578743e3c2f7376673e000000000000000000000000000000000000008152508160026003811061095e5761095d6123b2565b5b60200201819052506000610a0d61097485611422565b6109e88460006003811061098b5761098a6123b2565b5b6020020151856001600381106109a4576109a36123b2565b5b6020020151866002600381106109bd576109bc6123b2565b5b60200201516040516020016109d49392919061241d565b6040516020818303038152906040526114f0565b6040516020016109f99291906125ca565b6040516020818303038152906040526114f0565b905080604051602001610a209190612666565b60405160208183030381529060405292505050919050565b6000600560008473ffffffffffffffffffffffffffffffffffffffff1673ffffffffffffffffffffffffffffffffffffffff16815260200190815260200160002060008373ffffffffffffffffffffffffffffffffffffffff1673ffffffffffffffffffffffffffffffffffffffff16815260200190815260200160002060009054906101000a900460ff16905092915050565b60007f01ffc9a7000000000000000000000000000000000000000000000000000000007bffffffffffffffffffffffffffffffffffffffffffffffffffffffff1916827bffffffffffffffffffffffffffffffffffffffffffffffffffffffff1916149050919050565b610b3f81611653565b610b7e576040517f08c379a0000000000000000000000000000000000000000000000000000000008152600401610b7590612300565b60405180910390fd5b50565b600033905090565b816004600083815260200190815260200160002060006101000a81548173ffffffffffffffffffffffffffffffffffffffff021916908373ffffffffffffffffffffffffffffffffffffffff160217905550808273ffffffffffffffffffffffffffffffffffffffff16610bfc83610644565b73ffffffffffffffffffffffffffffffffffffffff167f8c5be1e5ebec7d5bd14f71427d1e84f3dd0314c0f7b2291e5b200ac8c7c3b92560405160405180910390a45050565b600080610c4e83610644565b90508073ffffffffffffffffffffffffffffffffffffffff168473ffffffffffffffffffffffffffffffffffffffff161480610c905750610c8f8185610a38565b5b80610cce57508373ffffffffffffffffffffffffffffffffffffffff16610cb684610467565b73ffffffffffffffffffffffffffffffffffffffff16145b91505092915050565b8273ffffffffffffffffffffffffffffffffffffffff16610cf782610644565b73ffffffffffffffffffffffffffffffffffffffff1614610d4d576040517f08c379a0000000000000000000000000000000000000000000000000000000008152600401610d44906126fa565b60405180910390fd5b600073ffffffffffffffffffffffffffffffffffffffff168273ffffffffffffffffffffffffffffffffffffffff1603610dbc576040517f08c379a0000000000000000000000000000000000000000000000000000000008152600401610db39061278c565b60405180910390fd5b610dc98383836001611694565b8273ffffffffffffffffffffffffffffffffffffffff16610de982610644565b73ffffffffffffffffffffffffffffffffffffffff1614610e3f576040517f08c379a0000000000000000000000000000000000000000000000000000000008152600401610e36906126fa565b60405180910390fd5b6004600082815260200190815260200160002060006101000a81549073ffffffffffffffffffffffffffffffffffffffff02191690556001600360008573ffffffffffffffffffffffffffffffffffffffff1673ffffffffffffffffffffffffffffffffffffffff168152602001908152602001600020600082825403925050819055506001600360008473ffffffffffffffffffffffffffffffffffffffff1673ffffffffffffffffffffffffffffffffffffffff16815260200190815260200160002060008282540192505081905550816002600083815260200190815260200160002060006101000a81548173ffffffffffffffffffffffffffffffffffffffff021916908373ffffffffffffffffffffffffffffffffffffffff160217905550808273ffffffffffffffffffffffffffffffffffffffff168473ffffffffffffffffffffffffffffffffffffffff167fddf252ad1be2c89b69c2b068fc378daa952ba7f163c4a11628f55a4df523b3ef60405160405180910390a4610fcb83838360016117ba565b505050565b60006002600083815260200190815260200160002060009054906101000a900473ffffffffffffffffffffffffffffffffffffffff169050919050565b6000600160065461101e91906127db565b905090565b600073ffffffffffffffffffffffffffffffffffffffff168273ffffffffffffffffffffffffffffffffffffffff1603611092576040517f08c379a00000000000000000000000000000000000000000000000000000000081526004016110899061285b565b60405180910390fd5b61109b81611653565b156110db576040517f08c379a00000000000000000000000000000000000000000000000000000000081526004016110d2906128c7565b60405180910390fd5b6110e9600083836001611694565b6110f281611653565b15611132576040517f08c379a0000000000000000000000000000000000000000000000000000000008152600401611129906128c7565b60405180910390fd5b6001600360008473ffffffffffffffffffffffffffffffffffffffff1673ffffffffffffffffffffffffffffffffffffffff16815260200190815260200160002060008282540192505081905550816002600083815260200190815260200160002060006101000a81548173ffffffffffffffffffffffffffffffffffffffff021916908373ffffffffffffffffffffffffffffffffffffffff160217905550808273ffffffffffffffffffffffffffffffffffffffff16600073ffffffffffffffffffffffffffffffffffffffff167fddf252ad1be2c89b69c2b068fc378daa952ba7f163c4a11628f55a4df523b3ef60405160405180910390a461123c6000838360016117ba565b5050565b60066000815480929190611253906128e7565b9190505550565b8173ffffffffffffffffffffffffffffffffffffffff168373ffffffffffffffffffffffffffffffffffffffff16036112c8576040517f08c379a00000000000000000000000000000000000000000000000000000000081526004016112bf9061297b565b60405180910390fd5b80600560008573ffffffffffffffffffffffffffffffffffffffff1673ffffffffffffffffffffffffffffffffffffffff16815260200190815260200160002060008473ffffffffffffffffffffffffffffffffffffffff1673ffffffffffffffffffffffffffffffffffffffff16815260200190815260200160002060006101000a81548160ff0219169083151502179055508173ffffffffffffffffffffffffffffffffffffffff168373ffffffffffffffffffffffffffffffffffffffff167f17307eab39ab6107e8899845ad3d59bd9653f200f220920489ca2b5937696c31836040516113b99190611b98565b60405180910390a3505050565b6113d1848484610cd7565b6113dd848484846117c0565b61141c576040517f08c379a000000000000000000000000000000000000000000000000000000000815260040161141390612a0d565b60405180910390fd5b50505050565b60606000600161143184611947565b01905060008167ffffffffffffffff8111156114505761144f611eb0565b5b6040519080825280601f01601f1916602001820160405280156114825781602001600182028036833780820191505090505b509050600082602001820190505b6001156114e5578080600190039150507f3031323334353637383961626364656600000000000000000000000000000000600a86061a8153600a85816114d9576114d8612a2d565b5b04945060008503611490575b819350505050919050565b606060008251036115125760405180602001604052806000815250905061164e565b6000604051806060016040528060408152602001612be7604091399050600060036002855161154191906127db565b61154b9190612a5c565b60046115579190612a8d565b67ffffffffffffffff8111156115705761156f611eb0565b5b6040519080825280601f01601f1916602001820160405280156115a25781602001600182028036833780820191505090505b509050600182016020820185865187015b8082101561160e576003820191508151603f8160121c168501518453600184019350603f81600c1c168501518453600184019350603f8160061c168501518453600184019350603f81168501518453600184019350506115b3565b505060038651066001811461162a576002811461163d57611645565b603d6001830353603d6002830353611645565b603d60018303535b50505080925050505b919050565b60008073ffffffffffffffffffffffffffffffffffffffff1661167583610fd0565b73ffffffffffffffffffffffffffffffffffffffff1614159050919050565b60018111156117b457600073ffffffffffffffffffffffffffffffffffffffff168473ffffffffffffffffffffffffffffffffffffffff16146117285780600360008673ffffffffffffffffffffffffffffffffffffffff1673ffffffffffffffffffffffffffffffffffffffff16815260200190815260200160002060008282546117209190612acf565b925050819055505b600073ffffffffffffffffffffffffffffffffffffffff168373ffffffffffffffffffffffffffffffffffffffff16146117b35780600360008573ffffffffffffffffffffffffffffffffffffffff1673ffffffffffffffffffffffffffffffffffffffff16815260200190815260200160002060008282546117ab91906127db565b925050819055505b5b50505050565b50505050565b60006117e18473ffffffffffffffffffffffffffffffffffffffff16611a9a565b1561193a578373ffffffffffffffffffffffffffffffffffffffff1663150b7a0261180a610b81565b8786866040518563ffffffff1660e01b815260040161182c9493929190612b58565b6020604051808303816000875af192505050801561186857506040513d601f19601f820116820180604052508101906118659190612bb9565b60015b6118ea573d8060008114611898576040519150601f19603f3d011682016040523d82523d6000602084013e61189d565b606091505b5060008151036118e2576040517f08c379a00000000000000000000000000000000000000000000000000000000081526004016118d990612a0d565b60405180910390fd5b805181602001fd5b63150b7a0260e01b7bffffffffffffffffffffffffffffffffffffffffffffffffffffffff1916817bffffffffffffffffffffffffffffffffffffffffffffffffffffffff19161491505061193f565b600190505b949350505050565b600080600090507a184f03e93ff9f4daa797ed6e38ed64bf6a1f01000000000000000083106119a5577a184f03e93ff9f4daa797ed6e38ed64bf6a1f010000000000000000838161199b5761199a612a2d565b5b0492506040810190505b6d04ee2d6d415b85acef810000000083106119e2576d04ee2d6d415b85acef810000000083816119d8576119d7612a2d565b5b0492506020810190505b662386f26fc100008310611a1157662386f26fc100008381611a0757611a06612a2d565b5b0492506010810190505b6305f5e1008310611a3a576305f5e1008381611a3057611a2f612a2d565b5b0492506008810190505b6127108310611a5f576127108381611a5557611a54612a2d565b5b0492506004810190505b60648310611a825760648381611a7857611a77612a2d565b5b0492506002810190505b600a8310611a91576001810190505b80915050919050565b6000808273ffffffffffffffffffffffffffffffffffffffff163b119050919050565b60405180606001604052806003905b6060815260200190600190039081611acc5790505090565b6000604051905090565b600080fd5b600080fd5b60007fffffffff0000000000000000000000000000000000000000000000000000000082169050919050565b611b2d81611af8565b8114611b3857600080fd5b50565b600081359050611b4a81611b24565b92915050565b600060208284031215611b6657611b65611aee565b5b6000611b7484828501611b3b565b91505092915050565b60008115159050919050565b611b9281611b7d565b82525050565b6000602082019050611bad6000830184611b89565b92915050565b600081519050919050565b600082825260208201905092915050565b60005b83811015611bed578082015181840152602081019050611bd2565b60008484015250505050565b6000601f19601f8301169050919050565b6000611c1582611bb3565b611c1f8185611bbe565b9350611c2f818560208601611bcf565b611c3881611bf9565b840191505092915050565b60006020820190508181036000830152611c5d8184611c0a565b905092915050565b6000819050919050565b611c7881611c65565b8114611c8357600080fd5b50565b600081359050611c9581611c6f565b92915050565b600060208284031215611cb157611cb0611aee565b5b6000611cbf84828501611c86565b91505092915050565b600073ffffffffffffffffffffffffffffffffffffffff82169050919050565b6000611cf382611cc8565b9050919050565b611d0381611ce8565b82525050565b6000602082019050611d1e6000830184611cfa565b92915050565b611d2d81611ce8565b8114611d3857600080fd5b50565b600081359050611d4a81611d24565b92915050565b60008060408385031215611d6757611d66611aee565b5b6000611d7585828601611d3b565b9250506020611d8685828601611c86565b9150509250929050565b600080600060608486031215611da957611da8611aee565b5b6000611db786828701611d3b565b9350506020611dc886828701611d3b565b9250506040611dd986828701611c86565b9150509250925092565b600060208284031215611df957611df8611aee565b5b6000611e0784828501611d3b565b91505092915050565b611e1981611c65565b82525050565b6000602082019050611e346000830184611e10565b92915050565b611e4381611b7d565b8114611e4e57600080fd5b50565b600081359050611e6081611e3a565b92915050565b60008060408385031215611e7d57611e7c611aee565b5b6000611e8b85828601611d3b565b9250506020611e9c85828601611e51565b9150509250929050565b600080fd5b600080fd5b7f4e487b7100000000000000000000000000000000000000000000000000000000600052604160045260246000fd5b611ee882611bf9565b810181811067ffffffffffffffff82111715611f0757611f06611eb0565b5b80604052505050565b6000611f1a611ae4565b9050611f268282611edf565b919050565b600067ffffffffffffffff821115611f4657611f45611eb0565b5b611f4f82611bf9565b9050602081019050919050565b82818337600083830152505050565b6000611f7e611f7984611f2b565b611f10565b905082815260208101848484011115611f9a57611f99611eab565b5b611fa5848285611f5c565b509392505050565b600082601f830112611fc257611fc1611ea6565b5b8135611fd2848260208601611f6b565b91505092915050565b60008060008060808587031215611ff557611ff4611aee565b5b600061200387828801611d3b565b945050602061201487828801611d3b565b935050604061202587828801611c86565b925050606085013567ffffffffffffffff81111561204657612045611af3565b5b61205287828801611fad565b91505092959194509250565b6000806040838503121561207557612074611aee565b5b600061208385828601611d3b565b925050602061209485828601611d3b565b9150509250929050565b7f4e487b7100000000000000000000000000000000000000000000000000000000600052602260045260246000fd5b600060028204905060018216806120e557607f821691505b6020821081036120f8576120f761209e565b5b50919050565b7f4552433732313a20617070726f76616c20746f2063757272656e74206f776e6560008201527f7200000000000000000000000000000000000000000000000000000000000000602082015250565b600061215a602183611bbe565b9150612165826120fe565b604082019050919050565b600060208201905081810360008301526121898161214d565b9050919050565b7f4552433732313a20617070726f76652063616c6c6572206973206e6f7420746f60008201527f6b656e206f776e6572206f7220617070726f76656420666f7220616c6c000000602082015250565b60006121ec603d83611bbe565b91506121f782612190565b604082019050919050565b6000602082019050818103600083015261221b816121df565b9050919050565b7f4552433732313a2063616c6c6572206973206e6f7420746f6b656e206f776e6560008201527f72206f7220617070726f76656400000000000000000000000000000000000000602082015250565b600061227e602d83611bbe565b915061228982612222565b604082019050919050565b600060208201905081810360008301526122ad81612271565b9050919050565b7f4552433732313a20696e76616c696420746f6b656e2049440000000000000000600082015250565b60006122ea601883611bbe565b91506122f5826122b4565b602082019050919050565b60006020820190508181036000830152612319816122dd565b9050919050565b7f4552433732313a2061646472657373207a65726f206973206e6f74206120766160008201527f6c6964206f776e65720000000000000000000000000000000000000000000000602082015250565b600061237c602983611bbe565b915061238782612320565b604082019050919050565b600060208201905081810360008301526123ab8161236f565b9050919050565b7f4e487b7100000000000000000000000000000000000000000000000000000000600052603260045260246000fd5b600081905092915050565b60006123f782611bb3565b61240181856123e1565b9350612411818560208601611bcf565b80840191505092915050565b600061242982866123ec565b915061243582856123ec565b915061244182846123ec565b9150819050949350505050565b7f7b226e616d65223a224261646765202300000000000000000000000000000000600082015250565b60006124846010836123e1565b915061248f8261244e565b601082019050919050565b7f222c226465736372697074696f6e223a224261646765204e465420776974682060008201527f6f6e2d636861696e2053564720696d6167652e222c0000000000000000000000602082015250565b60006124f66035836123e1565b91506125018261249a565b603582019050919050565b7f22696d616765223a2022646174613a696d6167652f7376672b786d6c3b62617360008201527f6536342c00000000000000000000000000000000000000000000000000000000602082015250565b60006125686024836123e1565b91506125738261250c565b602482019050919050565b7f227d000000000000000000000000000000000000000000000000000000000000600082015250565b60006125b46002836123e1565b91506125bf8261257e565b600282019050919050565b60006125d582612477565b91506125e182856123ec565b91506125ec826124e9565b91506125f78261255b565b915061260382846123ec565b915061260e826125a7565b91508190509392505050565b7f646174613a6170706c69636174696f6e2f6a736f6e3b6261736536342c000000600082015250565b6000612650601d836123e1565b915061265b8261261a565b601d82019050919050565b600061267182612643565b915061267d82846123ec565b915081905092915050565b7f4552433732313a207472616e736665722066726f6d20696e636f72726563742060008201527f6f776e6572000000000000000000000000000000000000000000000000000000602082015250565b60006126e4602583611bbe565b91506126ef82612688565b604082019050919050565b60006020820190508181036000830152612713816126d7565b9050919050565b7f4552433732313a207472616e7366657220746f20746865207a65726f2061646460008201527f7265737300000000000000000000000000000000000000000000000000000000602082015250565b6000612776602483611bbe565b91506127818261271a565b604082019050919050565b600060208201905081810360008301526127a581612769565b9050919050565b7f4e487b7100000000000000000000000000000000000000000000000000000000600052601160045260246000fd5b60006127e682611c65565b91506127f183611c65565b9250828201905080821115612809576128086127ac565b5b92915050565b7f4552433732313a206d696e7420746f20746865207a65726f2061646472657373600082015250565b6000612845602083611bbe565b91506128508261280f565b602082019050919050565b6000602082019050818103600083015261287481612838565b9050919050565b7f4552433732313a20746f6b656e20616c7265616479206d696e74656400000000600082015250565b60006128b1601c83611bbe565b91506128bc8261287b565b602082019050919050565b600060208201905081810360008301526128e0816128a4565b9050919050565b60006128f282611c65565b91507fffffffffffffffffffffffffffffffffffffffffffffffffffffffffffffffff8203612924576129236127ac565b5b600182019050919050565b7f4552433732313a20617070726f766520746f2063616c6c657200000000000000600082015250565b6000612965601983611bbe565b91506129708261292f565b602082019050919050565b6000602082019050818103600083015261299481612958565b9050919050565b7f4552433732313a207472616e7366657220746f206e6f6e20455243373231526560008201527f63656976657220696d706c656d656e7465720000000000000000000000000000602082015250565b60006129f7603283611bbe565b9150612a028261299b565b604082019050919050565b60006020820190508181036000830152612a26816129ea565b9050919050565b7f4e487b7100000000000000000000000000000000000000000000000000000000600052601260045260246000fd5b6000612a6782611c65565b9150612a7283611c65565b925082612a8257612a81612a2d565b5b828204905092915050565b6000612a9882611c65565b9150612aa383611c65565b9250828202612ab181611c65565b91508282048414831517612ac857612ac76127ac565b5b5092915050565b6000612ada82611c65565b9150612ae583611c65565b9250828203905081811115612afd57612afc6127ac565b5b92915050565b600081519050919050565b600082825260208201905092915050565b6000612b2a82612b03565b612b348185612b0e565b9350612b44818560208601611bcf565b612b4d81611bf9565b840191505092915050565b6000608082019050612b6d6000830187611cfa565b612b7a6020830186611cfa565b612b876040830185611e10565b8181036060830152612b998184612b1f565b905095945050505050565b600081519050612bb381611b24565b92915050565b600060208284031215612bcf57612bce611aee565b5b6000612bdd84828501612ba4565b9150509291505056fe4142434445464748494a4b4c4d4e4f505152535455565758595a6162636465666768696a6b6c6d6e6f707172737475767778797a303132333435363738392b2f3c73766720786d6c6e733d27687474703a2f2f7777772e77332e6f72672f323030302f73766727207072657365727665417370656374526174696f3d27784d696e594d696e206d656574272076696577426f783d273020302033353020333530273e3c7374796c653e2e62617365207b2066696c6c3a2077686974653b20666f6e742d66616d696c793a2073657269663b20666f6e742d73697a653a2033303070783b207d3c2f7374796c653e3c726563742077696474683d273130302527206865696768743d2731303025272066696c6c3d2762726f776e27202f3e3c7465787420783d273130302720793d273236302720636c6173733d2762617365273ea26469706673582212206f911b5da64122ce8c558b2433331810188bab980c6ed0af5712be2ee824738064736f6c63430008110033",
  "linkReferences": {},
  "deployedLinkReferences": {}
}